{
  "contractName": "Certificat",
  "abi": [
    {
      "inputs": [
        {
          "internalType": "address",
          "name": "_nftContract",
          "type": "address"
        },
        {
          "internalType": "uint8",
          "name": "_percentage",
          "type": "uint8"
        },
        {
          "internalType": "string",
          "name": "_contract_Content",
          "type": "string"
        },
        {
          "internalType": "string",
          "name": "_signature",
          "type": "string"
        },
        {
          "internalType": "string",
          "name": "_support",
          "type": "string"
        },
        {
          "internalType": "string",
          "name": "_uri",
          "type": "string"
        },
        {
          "components": [
            {
              "internalType": "uint256",
              "name": "id",
              "type": "uint256"
            },
            {
              "internalType": "address",
              "name": "owner",
              "type": "address"
            },
            {
              "internalType": "uint256",
              "name": "numReproduction",
              "type": "uint256"
            }
          ],
          "internalType": "struct Certificat.tokenDetails[]",
          "name": "_tokens",
          "type": "tuple[]"
        }
      ],
      "stateMutability": "nonpayable",
      "type": "constructor"
    },
    {
      "anonymous": false,
      "inputs": [
        {
          "indexed": true,
          "internalType": "address",
          "name": "previousOwner",
          "type": "address"
        },
        {
          "indexed": true,
          "internalType": "address",
          "name": "newOwner",
          "type": "address"
        }
      ],
      "name": "OwnershipTransferred",
      "type": "event"
    },
    {
      "inputs": [],
      "name": "artist",
      "outputs": [
        {
          "internalType": "address",
          "name": "",
          "type": "address"
        }
      ],
      "stateMutability": "view",
      "type": "function",
      "constant": true
    },
    {
      "inputs": [],
      "name": "contractContent",
      "outputs": [
        {
          "internalType": "string",
          "name": "",
          "type": "string"
        }
      ],
      "stateMutability": "view",
      "type": "function",
      "constant": true
    },
    {
      "inputs": [],
      "name": "nftContract",
      "outputs": [
        {
          "internalType": "address",
          "name": "",
          "type": "address"
        }
      ],
      "stateMutability": "view",
      "type": "function",
      "constant": true
    },
    {
      "inputs": [],
      "name": "owner",
      "outputs": [
        {
          "internalType": "address",
          "name": "",
          "type": "address"
        }
      ],
      "stateMutability": "view",
      "type": "function",
      "constant": true
    },
    {
      "inputs": [],
      "name": "percentage",
      "outputs": [
        {
          "internalType": "uint8",
          "name": "",
          "type": "uint8"
        }
      ],
      "stateMutability": "view",
      "type": "function",
      "constant": true
    },
    {
      "inputs": [],
      "name": "renounceOwnership",
      "outputs": [],
      "stateMutability": "nonpayable",
      "type": "function"
    },
    {
      "inputs": [],
      "name": "rnft",
      "outputs": [
        {
          "internalType": "address",
          "name": "",
          "type": "address"
        }
      ],
      "stateMutability": "view",
      "type": "function",
      "constant": true
    },
    {
      "inputs": [],
      "name": "signature",
      "outputs": [
        {
          "internalType": "string",
          "name": "",
          "type": "string"
        }
      ],
      "stateMutability": "view",
      "type": "function",
      "constant": true
    },
    {
      "inputs": [],
      "name": "support",
      "outputs": [
        {
          "internalType": "string",
          "name": "",
          "type": "string"
        }
      ],
      "stateMutability": "view",
      "type": "function",
      "constant": true
    },
    {
      "inputs": [
        {
          "internalType": "uint256",
          "name": "",
          "type": "uint256"
        }
      ],
      "name": "tokens",
      "outputs": [
        {
          "internalType": "uint256",
          "name": "id",
          "type": "uint256"
        },
        {
          "internalType": "address",
          "name": "owner",
          "type": "address"
        },
        {
          "internalType": "uint256",
          "name": "numReproduction",
          "type": "uint256"
        }
      ],
      "stateMutability": "view",
      "type": "function",
      "constant": true
    },
    {
      "inputs": [
        {
          "internalType": "address",
          "name": "newOwner",
          "type": "address"
        }
      ],
      "name": "transferOwnership",
      "outputs": [],
      "stateMutability": "nonpayable",
      "type": "function"
    },
    {
      "inputs": [],
      "name": "uri",
      "outputs": [
        {
          "internalType": "string",
          "name": "",
          "type": "string"
        }
      ],
      "stateMutability": "view",
      "type": "function",
      "constant": true
    }
  ],
  "bytecode": "0x6080604052737b6c79d93fbc4c4e9c777e6313c406c6e5b99eaa600360006101000a81548173ffffffffffffffffffffffffffffffffffffffff021916908373ffffffffffffffffffffffffffffffffffffffff1602179055506127106008553480156200006c57600080fd5b506040516200177838038062001778833981810160405281019062000092919062000737565b620000b2620000a6620002ab60201b60201c565b620002b360201b60201c565b620000e5600360009054906101000a900473ffffffffffffffffffffffffffffffffffffffff16620002b360201b60201c565b33600160006101000a81548173ffffffffffffffffffffffffffffffffffffffff021916908373ffffffffffffffffffffffffffffffffffffffff16021790555086600260006101000a81548173ffffffffffffffffffffffffffffffffffffffff021916908373ffffffffffffffffffffffffffffffffffffffff16021790555085600360146101000a81548160ff021916908360ff160217905550846004908162000193919062000ac6565b508360059081620001a5919062000ac6565b508260069081620001b7919062000ac6565b508160079081620001c9919062000ac6565b5060005b81518110156200029d57818181518110620001ed57620001ec62000bad565b5b6020026020010151600960008484815181106200020f576200020e62000bad565b5b60200260200101516000015181526020019081526020016000206000820151816000015560208201518160010160006101000a81548173ffffffffffffffffffffffffffffffffffffffff021916908373ffffffffffffffffffffffffffffffffffffffff160217905550604082015181600201559050508080620002949062000c0b565b915050620001cd565b505050505050505062000c58565b600033905090565b60008060009054906101000a900473ffffffffffffffffffffffffffffffffffffffff169050816000806101000a81548173ffffffffffffffffffffffffffffffffffffffff021916908373ffffffffffffffffffffffffffffffffffffffff1602179055508173ffffffffffffffffffffffffffffffffffffffff168173ffffffffffffffffffffffffffffffffffffffff167f8be0079c531659141344cd1fd0a4f28419497f9722a3daafe3b4186f6b6457e060405160405180910390a35050565b6000604051905090565b600080fd5b600080fd5b600073ffffffffffffffffffffffffffffffffffffffff82169050919050565b6000620003b8826200038b565b9050919050565b620003ca81620003ab565b8114620003d657600080fd5b50565b600081519050620003ea81620003bf565b92915050565b600060ff82169050919050565b6200040881620003f0565b81146200041457600080fd5b50565b6000815190506200042881620003fd565b92915050565b600080fd5b600080fd5b6000601f19601f8301169050919050565b7f4e487b7100000000000000000000000000000000000000000000000000000000600052604160045260246000fd5b620004838262000438565b810181811067ffffffffffffffff82111715620004a557620004a462000449565b5b80604052505050565b6000620004ba62000377565b9050620004c8828262000478565b919050565b600067ffffffffffffffff821115620004eb57620004ea62000449565b5b620004f68262000438565b9050602081019050919050565b60005b838110156200052357808201518184015260208101905062000506565b60008484015250505050565b6000620005466200054084620004cd565b620004ae565b90508281526020810184848401111562000565576200056462000433565b5b6200057284828562000503565b509392505050565b600082601f8301126200059257620005916200042e565b5b8151620005a48482602086016200052f565b91505092915050565b600067ffffffffffffffff821115620005cb57620005ca62000449565b5b602082029050602081019050919050565b600080fd5b600080fd5b6000819050919050565b620005fb81620005e6565b81146200060757600080fd5b50565b6000815190506200061b81620005f0565b92915050565b6000606082840312156200063a5762000639620005e1565b5b620006466060620004ae565b9050600062000658848285016200060a565b60008301525060206200066e84828501620003d9565b602083015250604062000684848285016200060a565b60408301525092915050565b6000620006a7620006a184620005ad565b620004ae565b90508083825260208201905060608402830185811115620006cd57620006cc620005dc565b5b835b81811015620006fa5780620006e5888262000621565b845260208401935050606081019050620006cf565b5050509392505050565b600082601f8301126200071c576200071b6200042e565b5b81516200072e84826020860162000690565b91505092915050565b600080600080600080600060e0888a03121562000759576200075862000381565b5b6000620007698a828b01620003d9565b97505060206200077c8a828b0162000417565b965050604088015167ffffffffffffffff811115620007a0576200079f62000386565b5b620007ae8a828b016200057a565b955050606088015167ffffffffffffffff811115620007d257620007d162000386565b5b620007e08a828b016200057a565b945050608088015167ffffffffffffffff81111562000804576200080362000386565b5b620008128a828b016200057a565b93505060a088015167ffffffffffffffff81111562000836576200083562000386565b5b620008448a828b016200057a565b92505060c088015167ffffffffffffffff81111562000868576200086762000386565b5b620008768a828b0162000704565b91505092959891949750929550565b600081519050919050565b7f4e487b7100000000000000000000000000000000000000000000000000000000600052602260045260246000fd5b60006002820490506001821680620008d857607f821691505b602082108103620008ee57620008ed62000890565b5b50919050565b60008190508160005260206000209050919050565b60006020601f8301049050919050565b600082821b905092915050565b600060088302620009587fffffffffffffffffffffffffffffffffffffffffffffffffffffffffffffffff8262000919565b62000964868362000919565b95508019841693508086168417925050509392505050565b6000819050919050565b6000620009a7620009a16200099b84620005e6565b6200097c565b620005e6565b9050919050565b6000819050919050565b620009c38362000986565b620009db620009d282620009ae565b84845462000926565b825550505050565b600090565b620009f2620009e3565b620009ff818484620009b8565b505050565b5b8181101562000a275762000a1b600082620009e8565b60018101905062000a05565b5050565b601f82111562000a765762000a4081620008f4565b62000a4b8462000909565b8101602085101562000a5b578190505b62000a7362000a6a8562000909565b83018262000a04565b50505b505050565b600082821c905092915050565b600062000a9b6000198460080262000a7b565b1980831691505092915050565b600062000ab6838362000a88565b9150826002028217905092915050565b62000ad18262000885565b67ffffffffffffffff81111562000aed5762000aec62000449565b5b62000af98254620008bf565b62000b0682828562000a2b565b600060209050601f83116001811462000b3e576000841562000b29578287015190505b62000b35858262000aa8565b86555062000ba5565b601f19841662000b4e86620008f4565b60005b8281101562000b785784890151825560018201915060208501945060208101905062000b51565b8683101562000b98578489015162000b94601f89168262000a88565b8355505b6001600288020188555050505b505050505050565b7f4e487b7100000000000000000000000000000000000000000000000000000000600052603260045260246000fd5b7f4e487b7100000000000000000000000000000000000000000000000000000000600052601160045260246000fd5b600062000c1882620005e6565b91507fffffffffffffffffffffffffffffffffffffffffffffffffffffffffffffffff820362000c4d5762000c4c62000bdc565b5b600182019050919050565b610b108062000c686000396000f3fe608060405234801561001057600080fd5b50600436106100b45760003560e01c80638da5cb5b116100715780638da5cb5b1461016d5780639fb2248d1461018b578063c78ad77f146101a9578063d56d229d146101c7578063eac989f8146101e5578063f2fde38b14610203576100b4565b8063119f8747146100b957806343bc1612146100d75780634f64b2be146100f557806351ff484714610127578063715018a61461014557806374cadcd51461014f575b600080fd5b6100c161021f565b6040516100ce91906107c0565b60405180910390f35b6100df6102ad565b6040516100ec9190610823565b60405180910390f35b61010f600480360381019061010a9190610879565b6102d3565b60405161011e939291906108b5565b60405180910390f35b61012f61031d565b60405161013c91906107c0565b60405180910390f35b61014d6103ab565b005b6101576103bf565b6040516101649190610823565b60405180910390f35b6101756103e5565b6040516101829190610823565b60405180910390f35b61019361040e565b6040516101a091906107c0565b60405180910390f35b6101b161049c565b6040516101be9190610908565b60405180910390f35b6101cf6104af565b6040516101dc9190610823565b60405180910390f35b6101ed6104d5565b6040516101fa91906107c0565b60405180910390f35b61021d6004803603810190610218919061094f565b610563565b005b6006805461022c906109ab565b80601f0160208091040260200160405190810160405280929190818152602001828054610258906109ab565b80156102a55780601f1061027a576101008083540402835291602001916102a5565b820191906000526020600020905b81548152906001019060200180831161028857829003601f168201915b505050505081565b600160009054906101000a900473ffffffffffffffffffffffffffffffffffffffff1681565b60096020528060005260406000206000915090508060000154908060010160009054906101000a900473ffffffffffffffffffffffffffffffffffffffff16908060020154905083565b6005805461032a906109ab565b80601f0160208091040260200160405190810160405280929190818152602001828054610356906109ab565b80156103a35780601f10610378576101008083540402835291602001916103a3565b820191906000526020600020905b81548152906001019060200180831161038657829003601f168201915b505050505081565b6103b36105e6565b6103bd6000610664565b565b600360009054906101000a900473ffffffffffffffffffffffffffffffffffffffff1681565b60008060009054906101000a900473ffffffffffffffffffffffffffffffffffffffff16905090565b6004805461041b906109ab565b80601f0160208091040260200160405190810160405280929190818152602001828054610447906109ab565b80156104945780601f1061046957610100808354040283529160200191610494565b820191906000526020600020905b81548152906001019060200180831161047757829003601f168201915b505050505081565b600360149054906101000a900460ff1681565b600260009054906101000a900473ffffffffffffffffffffffffffffffffffffffff1681565b600780546104e2906109ab565b80601f016020809104026020016040519081016040528092919081815260200182805461050e906109ab565b801561055b5780601f106105305761010080835404028352916020019161055b565b820191906000526020600020905b81548152906001019060200180831161053e57829003601f168201915b505050505081565b61056b6105e6565b600073ffffffffffffffffffffffffffffffffffffffff168173ffffffffffffffffffffffffffffffffffffffff16036105da576040517f08c379a00000000000000000000000000000000000000000000000000000000081526004016105d190610a4e565b60405180910390fd5b6105e381610664565b50565b6105ee610728565b73ffffffffffffffffffffffffffffffffffffffff1661060c6103e5565b73ffffffffffffffffffffffffffffffffffffffff1614610662576040517f08c379a000000000000000000000000000000000000000000000000000000000815260040161065990610aba565b60405180910390fd5b565b60008060009054906101000a900473ffffffffffffffffffffffffffffffffffffffff169050816000806101000a81548173ffffffffffffffffffffffffffffffffffffffff021916908373ffffffffffffffffffffffffffffffffffffffff1602179055508173ffffffffffffffffffffffffffffffffffffffff168173ffffffffffffffffffffffffffffffffffffffff167f8be0079c531659141344cd1fd0a4f28419497f9722a3daafe3b4186f6b6457e060405160405180910390a35050565b600033905090565b600081519050919050565b600082825260208201905092915050565b60005b8381101561076a57808201518184015260208101905061074f565b60008484015250505050565b6000601f19601f8301169050919050565b600061079282610730565b61079c818561073b565b93506107ac81856020860161074c565b6107b581610776565b840191505092915050565b600060208201905081810360008301526107da8184610787565b905092915050565b600073ffffffffffffffffffffffffffffffffffffffff82169050919050565b600061080d826107e2565b9050919050565b61081d81610802565b82525050565b60006020820190506108386000830184610814565b92915050565b600080fd5b6000819050919050565b61085681610843565b811461086157600080fd5b50565b6000813590506108738161084d565b92915050565b60006020828403121561088f5761088e61083e565b5b600061089d84828501610864565b91505092915050565b6108af81610843565b82525050565b60006060820190506108ca60008301866108a6565b6108d76020830185610814565b6108e460408301846108a6565b949350505050565b600060ff82169050919050565b610902816108ec565b82525050565b600060208201905061091d60008301846108f9565b92915050565b61092c81610802565b811461093757600080fd5b50565b60008135905061094981610923565b92915050565b6000602082840312156109655761096461083e565b5b60006109738482850161093a565b91505092915050565b7f4e487b7100000000000000000000000000000000000000000000000000000000600052602260045260246000fd5b600060028204905060018216806109c357607f821691505b6020821081036109d6576109d561097c565b5b50919050565b7f4f776e61626c653a206e6577206f776e657220697320746865207a65726f206160008201527f6464726573730000000000000000000000000000000000000000000000000000602082015250565b6000610a3860268361073b565b9150610a43826109dc565b604082019050919050565b60006020820190508181036000830152610a6781610a2b565b9050919050565b7f4f776e61626c653a2063616c6c6572206973206e6f7420746865206f776e6572600082015250565b6000610aa460208361073b565b9150610aaf82610a6e565b602082019050919050565b60006020820190508181036000830152610ad381610a97565b905091905056fea26469706673582212205296fcff0c2d26a91ab7eee180097fac010e28bd75ff50c93d32766c748d4eb364736f6c63430008110033",
  "immutableReferences": {},
  "source": "// SPDX-License-Identifier: MIT\r\npragma solidity ^0.8.0;\r\nimport \"@openzeppelin/contracts/access/AccessControl.sol\";\r\nimport \"@openzeppelin/contracts/access/Ownable.sol\";\r\n\r\ncontract Certificat is Ownable {\r\n    address public artist;\r\n    address public nftContract;\r\n    address public rnft=0x7B6C79d93Fbc4c4e9c777E6313C406C6e5b99EaA;\r\n    uint8 public percentage;\r\n    string public contractContent ;\r\n        \r\n    string public signature ;\r\n        \r\n    string public support;\r\n    string public uri;\r\n    int256 maxReproduction=10000;\r\n    struct tokenDetails {\r\n        uint256 id;\r\n        address owner;\r\n        uint256 numReproduction;\r\n    }\r\n\r\n    mapping (uint=>tokenDetails) public tokens;\r\n\r\n    constructor(\r\n        address _nftContract,\r\n        uint8  _percentage,\r\n        string memory _contract_Content,\r\n        string memory _signature,\r\n        string memory _support,\r\n        string memory _uri,\r\n        tokenDetails[] memory _tokens\r\n    ) {\r\n        _transferOwnership(rnft);\r\n        artist = msg.sender;\r\n        nftContract = _nftContract;\r\n        percentage = _percentage;\r\n        contractContent = _contract_Content;\r\n        signature = _signature;\r\n        support = _support;\r\n        uri = _uri;\r\n        for(uint i = 0; i<_tokens.length; i++){\r\n        tokens[_tokens[i].id]=_tokens[i];\r\n    }\r\n    }\r\n}\r\n",
  "sourcePath": "C:\\Users\\DELL\\Documents\\Ethereum Projects\\Sign_smart_contract\\contracts\\Certificat.sol",
  "compiler": {
    "name": "solc",
    "version": "0.8.17+commit.8df45f5f.Emscripten.clang"
  },
  "schemaVersion": "3.4.10",
  "updatedAt": "2022-12-24T23:00:55.989Z",
  "networkType": "ethereum",
  "devdoc": {
    "kind": "dev",
    "methods": {
      "owner()": {
        "details": "Returns the address of the current owner."
      },
      "renounceOwnership()": {
        "details": "Leaves the contract without owner. It will not be possible to call `onlyOwner` functions anymore. Can only be called by the current owner. NOTE: Renouncing ownership will leave the contract without an owner, thereby removing any functionality that is only available to the owner."
      },
      "transferOwnership(address)": {
        "details": "Transfers ownership of the contract to a new account (`newOwner`). Can only be called by the current owner."
      }
    },
    "version": 1
  },
  "userdoc": {
    "kind": "user",
    "methods": {},
    "version": 1
  }
}