{
  "contractName": "Test",
  "abi": [
    {
      "inputs": [
        {
          "components": [
            {
              "internalType": "uint256",
              "name": "id",
              "type": "uint256"
            },
            {
              "internalType": "int256",
              "name": "maxReproduction",
              "type": "int256"
            }
          ],
          "internalType": "struct Test.tokenDetails[]",
          "name": "_data",
          "type": "tuple[]"
        }
      ],
      "stateMutability": "nonpayable",
      "type": "constructor"
    },
    {
      "inputs": [
        {
          "internalType": "uint256",
          "name": "",
          "type": "uint256"
        }
      ],
      "name": "tokens",
      "outputs": [
        {
          "internalType": "uint256",
          "name": "id",
          "type": "uint256"
        },
        {
          "internalType": "int256",
          "name": "maxReproduction",
          "type": "int256"
        }
      ],
      "stateMutability": "view",
      "type": "function"
    }
  ],
  "bytecode": "0x608060405234801561001057600080fd5b5060405161055a38038061055a833981810160405281019061003291906102e8565b60005b81518110156100b35781818151811061005157610050610331565b5b602002602001015160008084848151811061006f5761006e610331565b5b6020026020010151600001518152602001908152602001600020600082015181600001556020820151816001015590505080806100ab9061038f565b915050610035565b50506103d7565b6000604051905090565b600080fd5b600080fd5b600080fd5b6000601f19601f8301169050919050565b7f4e487b7100000000000000000000000000000000000000000000000000000000600052604160045260246000fd5b61011c826100d3565b810181811067ffffffffffffffff8211171561013b5761013a6100e4565b5b80604052505050565b600061014e6100ba565b905061015a8282610113565b919050565b600067ffffffffffffffff82111561017a576101796100e4565b5b602082029050602081019050919050565b600080fd5b600080fd5b6000819050919050565b6101a881610195565b81146101b357600080fd5b50565b6000815190506101c58161019f565b92915050565b6000819050919050565b6101de816101cb565b81146101e957600080fd5b50565b6000815190506101fb816101d5565b92915050565b60006040828403121561021757610216610190565b5b6102216040610144565b90506000610231848285016101b6565b6000830152506020610245848285016101ec565b60208301525092915050565b600061026461025f8461015f565b610144565b905080838252602082019050604084028301858111156102875761028661018b565b5b835b818110156102b0578061029c8882610201565b845260208401935050604081019050610289565b5050509392505050565b600082601f8301126102cf576102ce6100ce565b5b81516102df848260208601610251565b91505092915050565b6000602082840312156102fe576102fd6100c4565b5b600082015167ffffffffffffffff81111561031c5761031b6100c9565b5b610328848285016102ba565b91505092915050565b7f4e487b7100000000000000000000000000000000000000000000000000000000600052603260045260246000fd5b7f4e487b7100000000000000000000000000000000000000000000000000000000600052601160045260246000fd5b600061039a82610195565b91507fffffffffffffffffffffffffffffffffffffffffffffffffffffffffffffffff82036103cc576103cb610360565b5b600182019050919050565b610174806103e66000396000f3fe608060405234801561001057600080fd5b506004361061002b5760003560e01c80634f64b2be14610030575b600080fd5b61004a600480360381019061004591906100c0565b610061565b604051610058929190610115565b60405180910390f35b60006020528060005260406000206000915090508060000154908060010154905082565b600080fd5b6000819050919050565b61009d8161008a565b81146100a857600080fd5b50565b6000813590506100ba81610094565b92915050565b6000602082840312156100d6576100d5610085565b5b60006100e4848285016100ab565b91505092915050565b6100f68161008a565b82525050565b6000819050919050565b61010f816100fc565b82525050565b600060408201905061012a60008301856100ed565b6101376020830184610106565b939250505056fea264697066735822122089855c26197a0cea9566360b769434bfa42dda7cc79f86dbcf49569816c6a70864736f6c63430008110033",
  "immutableReferences": {},
  "source": "pragma solidity ^0.8.0;\r\n\r\n  contract Test {\r\n\r\n     struct   tokenDetails {\r\n        uint id;\r\n        int maxReproduction;\r\n        \r\n    }\r\n\r\n    mapping(uint=>tokenDetails) public  tokens ;\r\n    constructor ( tokenDetails[] memory _data) {\r\n    //   tkn=_token;\r\n    for(uint i = 0; i<_data.length; i++){\r\n        tokens[_data[i].id]=_data[i];\r\n    }\r\n\r\n    }\r\n\r\n\r\n}",
  "sourcePath": "C:\\Users\\DELL\\Documents\\Ethereum Projects\\Sign_smart_contract\\contracts\\Test.sol",
  "compiler": {
    "name": "solc",
    "version": "0.8.17+commit.8df45f5f.Emscripten.clang"
  },
  "schemaVersion": "3.4.10",
  "updatedAt": "2022-12-24T23:00:30.808Z",
  "devdoc": {
    "kind": "dev",
    "methods": {},
    "version": 1
  },
  "userdoc": {
    "kind": "user",
    "methods": {},
    "version": 1
  }
}