{
  "contractName": "Test",
  "abi": [
    {
      "constant": true,
      "inputs": [],
      "name": "message",
      "outputs": [
        {
          "name": "",
          "type": "string"
        }
      ],
      "payable": false,
      "stateMutability": "view",
      "type": "function"
    },
    {
      "constant": true,
      "inputs": [
        {
          "name": "",
          "type": "uint256"
        }
      ],
      "name": "players",
      "outputs": [
        {
          "name": "",
          "type": "address"
        }
      ],
      "payable": false,
      "stateMutability": "view",
      "type": "function"
    },
    {
      "inputs": [
        {
          "name": "initialMessage",
          "type": "string"
        }
      ],
      "payable": false,
      "stateMutability": "nonpayable",
      "type": "constructor"
    },
    {
      "constant": true,
      "inputs": [],
      "name": "getManager",
      "outputs": [
        {
          "name": "",
          "type": "address"
        }
      ],
      "payable": false,
      "stateMutability": "view",
      "type": "function"
    },
    {
      "constant": false,
      "inputs": [
        {
          "name": "newMsg",
          "type": "string"
        }
      ],
      "name": "setMessage",
      "outputs": [],
      "payable": false,
      "stateMutability": "nonpayable",
      "type": "function"
    }
  ],
  "bytecode": "0x6060604052341561000f57600080fd5b60405161052e38038061052e83398101604052808051820191905050336000806101000a81548173ffffffffffffffffffffffffffffffffffffffff021916908373ffffffffffffffffffffffffffffffffffffffff1602179055508060029080519060200190610081929190610088565b505061012d565b828054600181600116156101000203166002900490600052602060002090601f016020900481019282601f106100c957805160ff19168380011785556100f7565b828001600101855582156100f7579182015b828111156100f65782518255916020019190600101906100db565b5b5090506101049190610108565b5090565b61012a91905b8082111561012657600081600090555060010161010e565b5090565b90565b6103f28061013c6000396000f30060606040526000357c0100000000000000000000000000000000000000000000000000000000900463ffffffff168063368b87721461005e578063d5009584146100bb578063e21f37ce14610110578063f71d96cb1461019e57600080fd5b341561006957600080fd5b6100b9600480803590602001908201803590602001908080601f01602080910402602001604051908101604052809392919081815260200183838082843782019150505050505091905050610201565b005b34156100c657600080fd5b6100ce61021b565b604051808273ffffffffffffffffffffffffffffffffffffffff1673ffffffffffffffffffffffffffffffffffffffff16815260200191505060405180910390f35b341561011b57600080fd5b610123610244565b6040518080602001828103825283818151815260200191508051906020019080838360005b83811015610163578082015181840152602081019050610148565b50505050905090810190601f1680156101905780820380516001836020036101000a031916815260200191505b509250505060405180910390f35b34156101a957600080fd5b6101bf60048080359060200190919050506102e2565b604051808273ffffffffffffffffffffffffffffffffffffffff1673ffffffffffffffffffffffffffffffffffffffff16815260200191505060405180910390f35b8060029080519060200190610217929190610321565b5050565b60008060009054906101000a900473ffffffffffffffffffffffffffffffffffffffff16905090565b60028054600181600116156101000203166002900480601f0160208091040260200160405190810160405280929190818152602001828054600181600116156101000203166002900480156102da5780601f106102af576101008083540402835291602001916102da565b820191906000526020600020905b8154815290600101906020018083116102bd57829003601f168201915b505050505081565b6001818154811015156102f157fe5b90600052602060002090016000915054906101000a900473ffffffffffffffffffffffffffffffffffffffff1681565b828054600181600116156101000203166002900490600052602060002090601f016020900481019282601f1061036257805160ff1916838001178555610390565b82800160010185558215610390579182015b8281111561038f578251825591602001919060010190610374565b5b50905061039d91906103a1565b5090565b6103c391905b808211156103bf5760008160009055506001016103a7565b5090565b905600a165627a7a723058201dba9a577828e45b80b12ef7627042f9139498290e9b57cdf03acb14f0898e0a0029",
  "source": "pragma solidity ^0.4.17;\r\n\r\ncontract Test {\r\n    address private manager;\r\n    address[] public players;\r\n    string public message;\r\n    function Test(string initialMessage) public {\r\n        manager=msg.sender;\r\n        message=initialMessage;    \r\n    }\r\n\r\n    function getManager() public view returns(address) {\r\n        return manager;\r\n\r\n    }\r\n\r\n    function setMessage(string newMsg) public {\r\n        message=newMsg;\r\n\r\n    } \r\n    \r\n}",
  "sourcePath": "C:\\Users\\DELL\\Documents\\Ethereum Projects\\Dapp_boilerplate_Truffle\\contracts\\Test.sol",
  "compiler": {
    "name": "solc",
    "version": "0.4.17+commit.bdeb9e52.Emscripten.clang"
  },
  "schemaVersion": "3.4.10",
  "updatedAt": "2022-11-05T00:14:34.668Z",
  "networkType": "ethereum",
  "devdoc": {
    "methods": {}
  },
  "userdoc": {
    "methods": {}
  }
}