{
  "contractName": "Test",
  "abi": [
    {
      "inputs": [
        {
          "internalType": "string",
          "name": "initialMessage",
          "type": "string"
        }
      ],
      "stateMutability": "nonpayable",
      "type": "constructor"
    },
    {
      "anonymous": false,
      "inputs": [
        {
          "indexed": true,
          "internalType": "bytes32",
          "name": "role",
          "type": "bytes32"
        },
        {
          "indexed": true,
          "internalType": "bytes32",
          "name": "previousAdminRole",
          "type": "bytes32"
        },
        {
          "indexed": true,
          "internalType": "bytes32",
          "name": "newAdminRole",
          "type": "bytes32"
        }
      ],
      "name": "RoleAdminChanged",
      "type": "event"
    },
    {
      "anonymous": false,
      "inputs": [
        {
          "indexed": true,
          "internalType": "bytes32",
          "name": "role",
          "type": "bytes32"
        },
        {
          "indexed": true,
          "internalType": "address",
          "name": "account",
          "type": "address"
        },
        {
          "indexed": true,
          "internalType": "address",
          "name": "sender",
          "type": "address"
        }
      ],
      "name": "RoleGranted",
      "type": "event"
    },
    {
      "anonymous": false,
      "inputs": [
        {
          "indexed": true,
          "internalType": "bytes32",
          "name": "role",
          "type": "bytes32"
        },
        {
          "indexed": true,
          "internalType": "address",
          "name": "account",
          "type": "address"
        },
        {
          "indexed": true,
          "internalType": "address",
          "name": "sender",
          "type": "address"
        }
      ],
      "name": "RoleRevoked",
      "type": "event"
    },
    {
      "inputs": [],
      "name": "DEFAULT_ADMIN_ROLE",
      "outputs": [
        {
          "internalType": "bytes32",
          "name": "",
          "type": "bytes32"
        }
      ],
      "stateMutability": "view",
      "type": "function"
    },
    {
      "inputs": [],
      "name": "USER_ROLE",
      "outputs": [
        {
          "internalType": "bytes32",
          "name": "",
          "type": "bytes32"
        }
      ],
      "stateMutability": "view",
      "type": "function"
    },
    {
      "inputs": [
        {
          "internalType": "bytes32",
          "name": "role",
          "type": "bytes32"
        }
      ],
      "name": "getRoleAdmin",
      "outputs": [
        {
          "internalType": "bytes32",
          "name": "",
          "type": "bytes32"
        }
      ],
      "stateMutability": "view",
      "type": "function"
    },
    {
      "inputs": [
        {
          "internalType": "bytes32",
          "name": "role",
          "type": "bytes32"
        },
        {
          "internalType": "address",
          "name": "account",
          "type": "address"
        }
      ],
      "name": "grantRole",
      "outputs": [],
      "stateMutability": "nonpayable",
      "type": "function"
    },
    {
      "inputs": [
        {
          "internalType": "bytes32",
          "name": "role",
          "type": "bytes32"
        },
        {
          "internalType": "address",
          "name": "account",
          "type": "address"
        }
      ],
      "name": "hasRole",
      "outputs": [
        {
          "internalType": "bool",
          "name": "",
          "type": "bool"
        }
      ],
      "stateMutability": "view",
      "type": "function"
    },
    {
      "inputs": [],
      "name": "message",
      "outputs": [
        {
          "internalType": "string",
          "name": "",
          "type": "string"
        }
      ],
      "stateMutability": "view",
      "type": "function"
    },
    {
      "inputs": [
        {
          "internalType": "uint256",
          "name": "",
          "type": "uint256"
        }
      ],
      "name": "players",
      "outputs": [
        {
          "internalType": "address",
          "name": "",
          "type": "address"
        }
      ],
      "stateMutability": "view",
      "type": "function"
    },
    {
      "inputs": [
        {
          "internalType": "bytes32",
          "name": "role",
          "type": "bytes32"
        },
        {
          "internalType": "address",
          "name": "account",
          "type": "address"
        }
      ],
      "name": "renounceRole",
      "outputs": [],
      "stateMutability": "nonpayable",
      "type": "function"
    },
    {
      "inputs": [
        {
          "internalType": "bytes32",
          "name": "role",
          "type": "bytes32"
        },
        {
          "internalType": "address",
          "name": "account",
          "type": "address"
        }
      ],
      "name": "revokeRole",
      "outputs": [],
      "stateMutability": "nonpayable",
      "type": "function"
    },
    {
      "inputs": [
        {
          "internalType": "bytes4",
          "name": "interfaceId",
          "type": "bytes4"
        }
      ],
      "name": "supportsInterface",
      "outputs": [
        {
          "internalType": "bool",
          "name": "",
          "type": "bool"
        }
      ],
      "stateMutability": "view",
      "type": "function"
    },
    {
      "inputs": [
        {
          "internalType": "address",
          "name": "account",
          "type": "address"
        }
      ],
      "name": "isAdmin",
      "outputs": [
        {
          "internalType": "bool",
          "name": "",
          "type": "bool"
        }
      ],
      "stateMutability": "view",
      "type": "function"
    },
    {
      "inputs": [
        {
          "internalType": "address",
          "name": "account",
          "type": "address"
        }
      ],
      "name": "isUser",
      "outputs": [
        {
          "internalType": "bool",
          "name": "",
          "type": "bool"
        }
      ],
      "stateMutability": "view",
      "type": "function"
    },
    {
      "inputs": [],
      "name": "getManager",
      "outputs": [
        {
          "internalType": "address",
          "name": "",
          "type": "address"
        }
      ],
      "stateMutability": "view",
      "type": "function"
    },
    {
      "inputs": [
        {
          "internalType": "string",
          "name": "newMsg",
          "type": "string"
        }
      ],
      "name": "setMessage",
      "outputs": [],
      "stateMutability": "nonpayable",
      "type": "function"
    },
    {
      "inputs": [
        {
          "internalType": "address",
          "name": "newPlayer",
          "type": "address"
        }
      ],
      "name": "addPlayer",
      "outputs": [],
      "stateMutability": "nonpayable",
      "type": "function"
    }
  ],
  "bytecode": "0x60806040523480156200001157600080fd5b5060405162001f2d38038062001f2d83398181016040528101906200003791906200048b565b33600160006101000a81548173ffffffffffffffffffffffffffffffffffffffff021916908373ffffffffffffffffffffffffffffffffffffffff160217905550806003908162000089919062000727565b50620000c16000801b600160009054906101000a900473ffffffffffffffffffffffffffffffffffffffff16620000fd60201b60201c565b620000f67f2db9fd3d099848027c2383d0a083396f6c41510d7acfd92adc99b6cffcf31e966000801b6200011360201b60201c565b506200080e565b6200010f82826200017660201b60201c565b5050565b600062000126836200026760201b60201c565b905081600080858152602001908152602001600020600101819055508181847fbd79b86ffe0ab8e8776151514217cd7cacd52c909f66475c3af44e129f0b00ff60405160405180910390a4505050565b6200018882826200028660201b60201c565b6200026357600160008084815260200190815260200160002060000160008373ffffffffffffffffffffffffffffffffffffffff1673ffffffffffffffffffffffffffffffffffffffff16815260200190815260200160002060006101000a81548160ff02191690831515021790555062000208620002f060201b60201c565b73ffffffffffffffffffffffffffffffffffffffff168173ffffffffffffffffffffffffffffffffffffffff16837f2f8788117e7eff1d82e926ec794901d17c78024a50270940304540a733656f0d60405160405180910390a45b5050565b6000806000838152602001908152602001600020600101549050919050565b600080600084815260200190815260200160002060000160008373ffffffffffffffffffffffffffffffffffffffff1673ffffffffffffffffffffffffffffffffffffffff16815260200190815260200160002060009054906101000a900460ff16905092915050565b600033905090565b6000604051905090565b600080fd5b600080fd5b600080fd5b600080fd5b6000601f19601f8301169050919050565b7f4e487b7100000000000000000000000000000000000000000000000000000000600052604160045260246000fd5b620003618262000316565b810181811067ffffffffffffffff8211171562000383576200038262000327565b5b80604052505050565b600062000398620002f8565b9050620003a6828262000356565b919050565b600067ffffffffffffffff821115620003c957620003c862000327565b5b620003d48262000316565b9050602081019050919050565b60005b8381101562000401578082015181840152602081019050620003e4565b60008484015250505050565b6000620004246200041e84620003ab565b6200038c565b90508281526020810184848401111562000443576200044262000311565b5b62000450848285620003e1565b509392505050565b600082601f83011262000470576200046f6200030c565b5b8151620004828482602086016200040d565b91505092915050565b600060208284031215620004a457620004a362000302565b5b600082015167ffffffffffffffff811115620004c557620004c462000307565b5b620004d38482850162000458565b91505092915050565b600081519050919050565b7f4e487b7100000000000000000000000000000000000000000000000000000000600052602260045260246000fd5b600060028204905060018216806200052f57607f821691505b602082108103620005455762000544620004e7565b5b50919050565b60008190508160005260206000209050919050565b60006020601f8301049050919050565b600082821b905092915050565b600060088302620005af7fffffffffffffffffffffffffffffffffffffffffffffffffffffffffffffffff8262000570565b620005bb868362000570565b95508019841693508086168417925050509392505050565b6000819050919050565b6000819050919050565b60006200060862000602620005fc84620005d3565b620005dd565b620005d3565b9050919050565b6000819050919050565b6200062483620005e7565b6200063c62000633826200060f565b8484546200057d565b825550505050565b600090565b6200065362000644565b6200066081848462000619565b505050565b5b8181101562000688576200067c60008262000649565b60018101905062000666565b5050565b601f821115620006d757620006a1816200054b565b620006ac8462000560565b81016020851015620006bc578190505b620006d4620006cb8562000560565b83018262000665565b50505b505050565b600082821c905092915050565b6000620006fc60001984600802620006dc565b1980831691505092915050565b6000620007178383620006e9565b9150826002028217905092915050565b6200073282620004dc565b67ffffffffffffffff8111156200074e576200074d62000327565b5b6200075a825462000516565b620007678282856200068c565b600060209050601f8311600181146200079f57600084156200078a578287015190505b62000796858262000709565b86555062000806565b601f198416620007af866200054b565b60005b82811015620007d957848901518255600182019150602085019450602081019050620007b2565b86831015620007f95784890151620007f5601f891682620006e9565b8355505b6001600288020188555050505b505050505050565b61170f806200081e6000396000f3fe608060405234801561001057600080fd5b50600436106100f55760003560e01c80634209fff111610097578063d500958411610066578063d500958414610296578063d547741f146102b4578063e21f37ce146102d0578063f71d96cb146102ee576100f5565b80634209fff1146101fc57806391d148541461022c578063a217fddf1461025c578063b1275f9a1461027a576100f5565b806324d7806c116100d357806324d7806c146101785780632f2ff15d146101a857806336568abe146101c4578063368b8772146101e0576100f5565b806301ffc9a7146100fa578063131191611461012a578063248a9ca314610148575b600080fd5b610114600480360381019061010f9190610c7a565b61031e565b6040516101219190610cc2565b60405180910390f35b610132610398565b60405161013f9190610cf6565b60405180910390f35b610162600480360381019061015d9190610d3d565b6103bc565b60405161016f9190610cf6565b60405180910390f35b610192600480360381019061018d9190610dc8565b6103db565b60405161019f9190610cc2565b60405180910390f35b6101c260048036038101906101bd9190610df5565b6103f1565b005b6101de60048036038101906101d99190610df5565b610412565b005b6101fa60048036038101906101f59190610f7b565b610495565b005b61021660048036038101906102119190610dc8565b6104ba565b6040516102239190610cc2565b60405180910390f35b61024660048036038101906102419190610df5565b6104ed565b6040516102539190610cc2565b60405180910390f35b610264610557565b6040516102719190610cf6565b60405180910390f35b610294600480360381019061028f9190610dc8565b61055e565b005b61029e6105d6565b6040516102ab9190610fd3565b60405180910390f35b6102ce60048036038101906102c99190610df5565b610600565b005b6102d8610621565b6040516102e5919061106d565b60405180910390f35b610308600480360381019061030391906110c5565b6106af565b6040516103159190610fd3565b60405180910390f35b60007f7965db0b000000000000000000000000000000000000000000000000000000007bffffffffffffffffffffffffffffffffffffffffffffffffffffffff1916827bffffffffffffffffffffffffffffffffffffffffffffffffffffffff191614806103915750610390826106ee565b5b9050919050565b7f2db9fd3d099848027c2383d0a083396f6c41510d7acfd92adc99b6cffcf31e9681565b6000806000838152602001908152602001600020600101549050919050565b60006103ea6000801b836104ed565b9050919050565b6103fa826103bc565b61040381610758565b61040d838361076c565b505050565b61041a61084c565b73ffffffffffffffffffffffffffffffffffffffff168173ffffffffffffffffffffffffffffffffffffffff1614610487576040517f08c379a000000000000000000000000000000000000000000000000000000000815260040161047e90611164565b60405180910390fd5b6104918282610854565b5050565b61049e336103db565b6104a757600080fd5b80600390816104b69190611390565b5050565b60006104e67f2db9fd3d099848027c2383d0a083396f6c41510d7acfd92adc99b6cffcf31e96836104ed565b9050919050565b600080600084815260200190815260200160002060000160008373ffffffffffffffffffffffffffffffffffffffff1673ffffffffffffffffffffffffffffffffffffffff16815260200190815260200160002060009054906101000a900460ff16905092915050565b6000801b81565b610567336103db565b61057057600080fd5b6002819080600181540180825580915050600190039060005260206000200160009091909190916101000a81548173ffffffffffffffffffffffffffffffffffffffff021916908373ffffffffffffffffffffffffffffffffffffffff16021790555050565b6000600160009054906101000a900473ffffffffffffffffffffffffffffffffffffffff16905090565b610609826103bc565b61061281610758565b61061c8383610854565b505050565b6003805461062e906111b3565b80601f016020809104026020016040519081016040528092919081815260200182805461065a906111b3565b80156106a75780601f1061067c576101008083540402835291602001916106a7565b820191906000526020600020905b81548152906001019060200180831161068a57829003601f168201915b505050505081565b600281815481106106bf57600080fd5b906000526020600020016000915054906101000a900473ffffffffffffffffffffffffffffffffffffffff1681565b60007f01ffc9a7000000000000000000000000000000000000000000000000000000007bffffffffffffffffffffffffffffffffffffffffffffffffffffffff1916827bffffffffffffffffffffffffffffffffffffffffffffffffffffffff1916149050919050565b6107698161076461084c565b610935565b50565b61077682826104ed565b61084857600160008084815260200190815260200160002060000160008373ffffffffffffffffffffffffffffffffffffffff1673ffffffffffffffffffffffffffffffffffffffff16815260200190815260200160002060006101000a81548160ff0219169083151502179055506107ed61084c565b73ffffffffffffffffffffffffffffffffffffffff168173ffffffffffffffffffffffffffffffffffffffff16837f2f8788117e7eff1d82e926ec794901d17c78024a50270940304540a733656f0d60405160405180910390a45b5050565b600033905090565b61085e82826104ed565b1561093157600080600084815260200190815260200160002060000160008373ffffffffffffffffffffffffffffffffffffffff1673ffffffffffffffffffffffffffffffffffffffff16815260200190815260200160002060006101000a81548160ff0219169083151502179055506108d661084c565b73ffffffffffffffffffffffffffffffffffffffff168173ffffffffffffffffffffffffffffffffffffffff16837ff6391f5c32d9c69d2a47ea670b442974b53935d1edc7fd64eb21e047a839171b60405160405180910390a45b5050565b61093f82826104ed565b6109ce576109648173ffffffffffffffffffffffffffffffffffffffff1660146109d2565b6109728360001c60206109d2565b604051602001610983929190611536565b6040516020818303038152906040526040517f08c379a00000000000000000000000000000000000000000000000000000000081526004016109c5919061106d565b60405180910390fd5b5050565b6060600060028360026109e5919061159f565b6109ef91906115e1565b67ffffffffffffffff811115610a0857610a07610e50565b5b6040519080825280601f01601f191660200182016040528015610a3a5781602001600182028036833780820191505090505b5090507f300000000000000000000000000000000000000000000000000000000000000081600081518110610a7257610a71611615565b5b60200101907effffffffffffffffffffffffffffffffffffffffffffffffffffffffffffff1916908160001a9053507f780000000000000000000000000000000000000000000000000000000000000081600181518110610ad657610ad5611615565b5b60200101907effffffffffffffffffffffffffffffffffffffffffffffffffffffffffffff1916908160001a90535060006001846002610b16919061159f565b610b2091906115e1565b90505b6001811115610bc0577f3031323334353637383961626364656600000000000000000000000000000000600f861660108110610b6257610b61611615565b5b1a60f81b828281518110610b7957610b78611615565b5b60200101907effffffffffffffffffffffffffffffffffffffffffffffffffffffffffffff1916908160001a905350600485901c945080610bb990611644565b9050610b23565b5060008414610c04576040517f08c379a0000000000000000000000000000000000000000000000000000000008152600401610bfb906116b9565b60405180910390fd5b8091505092915050565b6000604051905090565b600080fd5b600080fd5b60007fffffffff0000000000000000000000000000000000000000000000000000000082169050919050565b610c5781610c22565b8114610c6257600080fd5b50565b600081359050610c7481610c4e565b92915050565b600060208284031215610c9057610c8f610c18565b5b6000610c9e84828501610c65565b91505092915050565b60008115159050919050565b610cbc81610ca7565b82525050565b6000602082019050610cd76000830184610cb3565b92915050565b6000819050919050565b610cf081610cdd565b82525050565b6000602082019050610d0b6000830184610ce7565b92915050565b610d1a81610cdd565b8114610d2557600080fd5b50565b600081359050610d3781610d11565b92915050565b600060208284031215610d5357610d52610c18565b5b6000610d6184828501610d28565b91505092915050565b600073ffffffffffffffffffffffffffffffffffffffff82169050919050565b6000610d9582610d6a565b9050919050565b610da581610d8a565b8114610db057600080fd5b50565b600081359050610dc281610d9c565b92915050565b600060208284031215610dde57610ddd610c18565b5b6000610dec84828501610db3565b91505092915050565b60008060408385031215610e0c57610e0b610c18565b5b6000610e1a85828601610d28565b9250506020610e2b85828601610db3565b9150509250929050565b600080fd5b600080fd5b6000601f19601f8301169050919050565b7f4e487b7100000000000000000000000000000000000000000000000000000000600052604160045260246000fd5b610e8882610e3f565b810181811067ffffffffffffffff82111715610ea757610ea6610e50565b5b80604052505050565b6000610eba610c0e565b9050610ec68282610e7f565b919050565b600067ffffffffffffffff821115610ee657610ee5610e50565b5b610eef82610e3f565b9050602081019050919050565b82818337600083830152505050565b6000610f1e610f1984610ecb565b610eb0565b905082815260208101848484011115610f3a57610f39610e3a565b5b610f45848285610efc565b509392505050565b600082601f830112610f6257610f61610e35565b5b8135610f72848260208601610f0b565b91505092915050565b600060208284031215610f9157610f90610c18565b5b600082013567ffffffffffffffff811115610faf57610fae610c1d565b5b610fbb84828501610f4d565b91505092915050565b610fcd81610d8a565b82525050565b6000602082019050610fe86000830184610fc4565b92915050565b600081519050919050565b600082825260208201905092915050565b60005b8381101561102857808201518184015260208101905061100d565b60008484015250505050565b600061103f82610fee565b6110498185610ff9565b935061105981856020860161100a565b61106281610e3f565b840191505092915050565b600060208201905081810360008301526110878184611034565b905092915050565b6000819050919050565b6110a28161108f565b81146110ad57600080fd5b50565b6000813590506110bf81611099565b92915050565b6000602082840312156110db576110da610c18565b5b60006110e9848285016110b0565b91505092915050565b7f416363657373436f6e74726f6c3a2063616e206f6e6c792072656e6f756e636560008201527f20726f6c657320666f722073656c660000000000000000000000000000000000602082015250565b600061114e602f83610ff9565b9150611159826110f2565b604082019050919050565b6000602082019050818103600083015261117d81611141565b9050919050565b7f4e487b7100000000000000000000000000000000000000000000000000000000600052602260045260246000fd5b600060028204905060018216806111cb57607f821691505b6020821081036111de576111dd611184565b5b50919050565b60008190508160005260206000209050919050565b60006020601f8301049050919050565b600082821b905092915050565b6000600883026112467fffffffffffffffffffffffffffffffffffffffffffffffffffffffffffffffff82611209565b6112508683611209565b95508019841693508086168417925050509392505050565b6000819050919050565b600061128d6112886112838461108f565b611268565b61108f565b9050919050565b6000819050919050565b6112a783611272565b6112bb6112b382611294565b848454611216565b825550505050565b600090565b6112d06112c3565b6112db81848461129e565b505050565b5b818110156112ff576112f46000826112c8565b6001810190506112e1565b5050565b601f82111561134457611315816111e4565b61131e846111f9565b8101602085101561132d578190505b611341611339856111f9565b8301826112e0565b50505b505050565b600082821c905092915050565b600061136760001984600802611349565b1980831691505092915050565b60006113808383611356565b9150826002028217905092915050565b61139982610fee565b67ffffffffffffffff8111156113b2576113b1610e50565b5b6113bc82546111b3565b6113c7828285611303565b600060209050601f8311600181146113fa57600084156113e8578287015190505b6113f28582611374565b86555061145a565b601f198416611408866111e4565b60005b828110156114305784890151825560018201915060208501945060208101905061140b565b8683101561144d5784890151611449601f891682611356565b8355505b6001600288020188555050505b505050505050565b600081905092915050565b7f416363657373436f6e74726f6c3a206163636f756e7420000000000000000000600082015250565b60006114a3601783611462565b91506114ae8261146d565b601782019050919050565b60006114c482610fee565b6114ce8185611462565b93506114de81856020860161100a565b80840191505092915050565b7f206973206d697373696e6720726f6c6520000000000000000000000000000000600082015250565b6000611520601183611462565b915061152b826114ea565b601182019050919050565b600061154182611496565b915061154d82856114b9565b915061155882611513565b915061156482846114b9565b91508190509392505050565b7f4e487b7100000000000000000000000000000000000000000000000000000000600052601160045260246000fd5b60006115aa8261108f565b91506115b58361108f565b92508282026115c38161108f565b915082820484148315176115da576115d9611570565b5b5092915050565b60006115ec8261108f565b91506115f78361108f565b925082820190508082111561160f5761160e611570565b5b92915050565b7f4e487b7100000000000000000000000000000000000000000000000000000000600052603260045260246000fd5b600061164f8261108f565b91506000820361166257611661611570565b5b600182039050919050565b7f537472696e67733a20686578206c656e67746820696e73756666696369656e74600082015250565b60006116a3602083610ff9565b91506116ae8261166d565b602082019050919050565b600060208201905081810360008301526116d281611696565b905091905056fea264697066735822122049bfff4683d2d569cc538b382ad6c15f92c5dd24226364ce500dd6f7179377a364736f6c63430008110033",
  "immutableReferences": {},
  "source": "// SPDX-License-Identifier: MIT\r\npragma solidity ^0.8.0;\r\nimport \"@openzeppelin/contracts/access/AccessControl.sol\";\r\n\r\ncontract Test is AccessControl{\r\n    bytes32 public constant USER_ROLE = keccak256(\"USER\");\r\n    address private manager;\r\n    address[] public players;\r\n    string public message;\r\n\r\n    constructor (string memory initialMessage)  {\r\n        manager=msg.sender;\r\n        message=initialMessage;    \r\n        _setupRole(DEFAULT_ADMIN_ROLE, manager);\r\n        _setRoleAdmin(USER_ROLE, DEFAULT_ADMIN_ROLE);\r\n    }\r\n\r\n    modifier onlyAdmin(){\r\n        require(isAdmin(msg.sender));\r\n        _;\r\n    }\r\n\r\n    modifier onlyUser() {\r\n\r\n        require(isUser(msg.sender));\r\n        _;\r\n    }\r\n\r\n    function isAdmin(address account) public view returns(bool) {\r\n        return hasRole(DEFAULT_ADMIN_ROLE, account);\r\n    }\r\n\r\n    function isUser(address account) public view returns(bool) {\r\n    return hasRole(USER_ROLE, account);\r\n    }\r\n\r\n\r\n    function getManager() public view returns(address) {\r\n        return manager;\r\n\r\n    }\r\n\r\n    function setMessage(string memory newMsg) public  onlyAdmin {\r\n        message=newMsg;\r\n\r\n    }\r\n\r\n    function addPlayer(address  newPlayer) public onlyAdmin {\r\n        players.push(newPlayer);\r\n    } \r\n    \r\n}\r\n\r\n// pragma solidity ^0.4.17;\r\n// import \"@openzeppelin/contracts/access/AccessControl.sol\";\r\n\r\n// contract Test {\r\n//     address private manager;\r\n//     address[] public players;\r\n//     string public message;\r\n//     function Test(string initialMessage) public {\r\n//         manager=msg.sender;\r\n//         message=initialMessage;    \r\n//     }\r\n\r\n//     function getManager() public view returns(address) {\r\n//         return manager;\r\n\r\n//     }\r\n\r\n//     function setMessage(string newMsg) public {\r\n//         message=newMsg;\r\n\r\n//     } \r\n    \r\n// }",
  "sourcePath": "C:\\Users\\DELL\\Documents\\Ethereum Projects\\Dapp_boilerplate_Truffle\\contracts\\Test.sol",
  "compiler": {
    "name": "solc",
    "version": "0.8.17+commit.8df45f5f.Emscripten.clang"
  },
  "schemaVersion": "3.4.10",
  "updatedAt": "2022-11-06T01:30:57.578Z",
  "devdoc": {
    "kind": "dev",
    "methods": {
      "getRoleAdmin(bytes32)": {
        "details": "Returns the admin role that controls `role`. See {grantRole} and {revokeRole}. To change a role's admin, use {_setRoleAdmin}."
      },
      "grantRole(bytes32,address)": {
        "details": "Grants `role` to `account`. If `account` had not been already granted `role`, emits a {RoleGranted} event. Requirements: - the caller must have ``role``'s admin role. May emit a {RoleGranted} event."
      },
      "hasRole(bytes32,address)": {
        "details": "Returns `true` if `account` has been granted `role`."
      },
      "renounceRole(bytes32,address)": {
        "details": "Revokes `role` from the calling account. Roles are often managed via {grantRole} and {revokeRole}: this function's purpose is to provide a mechanism for accounts to lose their privileges if they are compromised (such as when a trusted device is misplaced). If the calling account had been revoked `role`, emits a {RoleRevoked} event. Requirements: - the caller must be `account`. May emit a {RoleRevoked} event."
      },
      "revokeRole(bytes32,address)": {
        "details": "Revokes `role` from `account`. If `account` had been granted `role`, emits a {RoleRevoked} event. Requirements: - the caller must have ``role``'s admin role. May emit a {RoleRevoked} event."
      },
      "supportsInterface(bytes4)": {
        "details": "See {IERC165-supportsInterface}."
      }
    },
    "version": 1
  },
  "userdoc": {
    "kind": "user",
    "methods": {},
    "version": 1
  }
}